S01100004268756A616C5254552E73726563C2
S113000009C200000C942A1536C2000034C2000054
S113001032C200000C9404410C942B412CC2000009
S11300202AC2000028C2000026C2000024C2000028
S113003022C2000020C200001EC200001CC2000038
S11300401AC2000018C2000016C2000014C2000048
S113005012C2000010C200000EC200000C946F41D6
S11300600AC200000C94834306C200000C94BE43F1
S113007002C2000000C20000FEC10000FCC100007A
S1130080FAC10000F8C10000F6C10000F4C100008C
S11300900C940C44F0C100000C944444ECC10000E6
S11300A0EAC10000E8C10000E6C10000E4C10000AC
S11300B0E2C10000E0C10000DEC10000DCC10000BC
S11300C0DAC10000D8C10000D6C100000C9450442D
S11300D0D2C100000C9451450C945D45CCC1000084
S11300E00C946945EE07C208C2081A082A083808A1
S11300F046087208BA0880088E08560B660B660D0F
S1130100950D6F0B7C0BA40BB50BCD0DD50DE90B29
S1130110FC0BA70FA70F100C3B0C450C580C760CCE
S1130120E30CFE0C0F0D320D430DDD0DA70F740E05
S1130130560EA70FA70FA70F8C0E9E0EC70EAC0E60
S1130140D60E190FA70F880FB014A414A614A81460
S1130150AA14AC14AE14AE14AE14AE14AE14AE1491
S1130160AE14AE14AE14AE14AE14AE14AE14AE147B
S1130170AE14AE14AE14AE14AE14AE14AE14AE146B
S1130180AE14AE14AE14AE14B014A414A614A81471
S1130190AA14AC14EA2681209820A920B820CD20E6
S11301A09E21B3211E223322A327A3276023772372
S11301B0A327FA230924A327A327A327A327A32735
S11301C0A327A327A327A327A32774248924EE24E2
S11301D017257C259125A327A3279A22AD22A3279F
S11301E070268526F526A3271F278827F7250C26A2
S11301F09029A3290A2C0A2C0A2C0A2C0B2A202A1F
S1130200932A362B472B342C432C532C752C2C2D12
S1130210772D892CBC2C442D772D12420C4212428E
S1130220094212420942124212420942124209424E
S11302301242000000000000005F000000070007F9
S113024000147F147F14242A7F2A12231308646263
S113025036495522500005030000001C22410000CD
S113026041221C00082A1C2A0808083E08080050DD
S1130270300000080808080800303000002010088A
S113028004023E5149453E00427F400042615149CB
S1130290462141454B311814127F102745454539F5
S11302A03C4A494930017109050336494949360632
S11302B04949291E00363600000056360000000861
S11302C0142241141414141441221408000201517C
S11302D00906324979413E7E1111117E7F4949490F
S11302E0363E414141227F4141221C7F49494941D7
S11302F07F090901013E414151327F0808087F000E
S1130300417F41002040413F017F081422417F404A
S11303104040407F0204027F7F0408107F3E414139
S1130320413E7F090909063E4151215E7F09192991
S113033046464949493101017F01013F4040403F60
S11303401F2040201F7F2018207F6314081463039C
S113035004780403615149454300007F414102048C
S113036008102041417F0000040201020440404083
S11303704040000102040020545454787F4844440F
S1130380383844444420384444487F38545454183A
S1130390087E090102081454543C7F0804047800C0
S11303A0447D40002040443D00007F10284400412B
S11303B07F40007C041804787C08040478384444A2
S11303C044387C14141408081414187C7C0804049D
S11303D0084854545420043F4440203C4040207C6E
S11303E01C2040201C3C4030403C44281028440C35
S11303F05050503C4464544C4400083641000000C2
S11304007F0000004136080008082A1C08081C2A3E
S11304100808F64011241FBECFEFD1E2DEBFCDBFE6
S113042000E00CBF1AE0A0E0B2E0E2E5F6E900E08B
S11304300BBF02C007900D92A83EB107D9F726E181
S1130440A8EEBAE001C01D92A234B207E1F712E0AF
S1130450CAE0D2E000E006C021970109802FFE0126
S11304600E94FA46C930D10780E00807A9F70E9424
S1130470953F0C94274BC4CDEAE7F0E08081876870
S11304808083ECE7F0E08081806480838FEF97E4E1
S11304900197F1F700C000000895ECE7F0E09081C7
S11304A0907E908390818770982B9083EAE7F0E0A8
S11304B0808180648083808184FFFDCFEAE7F0E05F
S11304C08081806180838091780090917900089583
S11304D0CF93DF93EC01F89462E40E945614FE017A
S11304E0E15BFF4F808340E550E060EA70E0CE01BD
S11304F00E94104B7894DF91CF910895F89480E591
S1130500E4E9F2E1DF011D928A95E9F78EE0E1E288
S1130510F2E0A4E9B2E101900D928A95E1F78EE050
S1130520EFE2F2E0A4EBB2E101900D928A95E1F7DB
S113053080E197E29093D5128093D4126FE484E91A
S113054092E10E9456148093E31284E992E1C0DFA1
S113055078940895EF92FF921F93CF93DF93F894CA
S1130560C0E0D0E00F2EF3EEEF2EF2E1FF2EF02DDF
S113057040E550E060EA70E084E992E10E94DF4ADD
S1130580F701108162E484E992E10E94561418177D
S113059021F02196C330D10559F7789481E023974F
S11305A00CF080E0DF91CF911F91FF90EF900895C0
S11305B01F93CF93DF93F894C0E0D0E040E450E081
S11305C060E570E085E494E10E94DF4A10918414B0
S11305D06FE385E494E10E945614181721F02196E4
S11305E0C330D10559F7789481E023970CF080E06B
S11305F0DF91CF911F910895F8946FE385E494E11E
S11306000E9456148093841440E450E060E570E046
S113061085E494E10E94104B78940895F8946FE176
S11306208AE09BE00E9456148093290B40E250E03C
S113063060E070E08AE09BE00E94104B789408959B
S11306401F93CF93DF93F894C0E0D0E040E250E0F2
S113065060E070E08AE09BE00E94DF4A1091290B81
S11306606FE18AE09BE00E945614181721F021964E
S1130670C330D10559F7789423971CF0419A80E050
S113068001C081E0DF91CF911F910895F8946FE04C
S11306908AEF9AE00E9456148093090B40E150E0DF
S11306A060EF70E08AEF9AE00E94104B789408950E
S11306B01F93CF93DF93F894C0E0D0E040E150E083
S11306C060EF70E08AEF9AE00E94DF4A1091090B14
S11306D06FE08AEF9AE00E945614181721F02196D1
S11306E0C330D10559F7789423971CF0419A80E0E0
S11306F001C081E0DF91CF911F910895CF93DF93E3
S1130700F894CAE0DBE08881998120E2FE0111922D
S11307102A95E9F79983888384E690E09B838A830A
S11307208AE0EEE3F2E0AEE0BBE001900D928A9540
S1130730E1F788EC90E0998F888F8CED95E09B8FA2
S11307408A8F6CDFEAEFFAE088E795E09183808393
S113075083E0828381E0838399DF7894DF91CF9172
S11307600895F89467E08CEE9AE00E945614809302
S1130770F30A48E050E068E671E08CEE9AE00E94EB
S1130780EF4A789408951F93CF93DF93F894C0E0D1
S1130790D0E048E050E068E671E08CEE9AE00E9418
S11307A0DF4A1091F30A67E08CEE9AE00E94561437
S11307B0181721F02196C330D10559F7789481E0B8
S11307C023970CF080E0DF91CF911F9108958093DF
S11307D0EC0AC7CF0895FC0195E0ADEEBAE00190B4
S11307E00D929A95E1F7BDCF08958DEE9AE00895A4
S11307F0FC018081823019F084EB92E1089584E950
S113080092E10895CF93DF93EC01A4DE88818130D7
S113081091F480E2E4EBF2E1DF011D928A95E9F7BD
S113082099819923D9F0DF01FE0132969D9391912C
S11308309111FCCF13C0823089F480E2E4E9F2E143
S1130840DF011D928A95E9F79981992339F0DF0137
S1130850FE0132969D9391919111FCCF84E992E12E
S113086037DEDF91CF910895F89444E050E060E7DB
S113087071E088EE9AE00E94DF4A789481E008955E
S1130880F89444E050E060E771E088EE9AE00E945A
S1130890104B78940895CF93DF931F92CDB7DEB7B2
S11308A0F8940E947230898341E050E060E071E086
S11308B0CE0101960E94104B78940F90DF91CF9156
S11308C00895CF93C62FEAE0FBE0DC0159962D9101
S11308D03C915A97338322835B968C91848F9EDE5E
S11308E08C2F0E947530D7DFCF9108950F931F93FB
S11308F0CF93DF931F92CDB7DEB7F89400E010E0FA
S113090041E050E060E071E0CE0101960E94DF4AD0
S11309108981853618F40E94753005C00F5F1F4F1A
S11309200330110569F7789481E0033011050CF068
S113093080E00F90DF91CF911F910F910895CF9395
S11309400E940C3160E081E00E94E23089E492E090
S11309500E945F3162E088E20E94E2308FE592E01B
S11309600E945F3164E082E30E94E2308AE692E012
S11309700E945F3166E080E00E94E23080E792E00E
S11309800E945F3167E081E00E94E23089E492E0F6
S11309900E945F31C1E06C2F80E00E94E2308CE75E
S11309A00E941E316C2F8AE70E94E2308CE70E947D
S11309B01E31CF5FC73079F7CF9108954F925F9280
S11309C06F927F92AF92BF92CF92DF92EF92FF929B
S11309D00F931F93CF93DF93CDB7DEB76D970FB609
S11309E0F894DEBF0FBECDBF49E150E060E270E095
S11309F0CE0101960E94AF47EAE0FBE0B080A180FF
S1130A008091AD1381FF02C012E401C01DE40E9475
S1130A104920813089F40E94FC32882379F0809146
S1130A20F60A882321F01092F60A00E208C081E059
S1130A308093F60A0EE503C008E501C007E460E010
S1130A4080E00E94E2301F921F931F920F930F2E9B
S1130A50FDE9EF2EF3E1FF2EF02DF70187891F92B8
S1130A608F9386891F928F9385891F928F93828992
S1130A701F928F9383891F928F9384891F928F93E0
S1130A8084E992E09F938F938E010F5F1F4F1F9312
S1130A900F930E94F447C8010E945F3149E150E07E
S1130AA060E270E0C8010E94AF4761E080E00E940C
S1130AB0E23088EB92E00E945F3162E080E00E94C5
S1130AC0E2300F2EFEECCF2EF2E0DF2EF02DDF927F
S1130AD0CF92EAE0FBE0948D89E2989F812D112466
S1130AE082958F7024E6829F901911241F929F9300
S1130AF083818F9382818F9381ED92E09F938F9373
S1130B0088ED92E09F938F931F930F930E94F44775
S1130B100FB6F894DEBF0FBECDBFC8010E945F318F
S1130B2049E150E060E270E0C8010E94AF4763E031
S1130B3080E00E94E230F7016481758186819781AB
S1130B40DF92CF9228EE33E040E050E00E94D84696
S1130B50F22EE32ED42EC52E2AE030E040E050E001
S1130B600E94D8465F934F933F932F93CF92DF9287
S1130B70EF92FF9287EE92E09F938F938EEE92E036
S1130B809F938F931F930F930E94F447C8010E9471
S1130B905F3149E150E060E270E0C8010E94AF4774
S1130BA064E080E00E94E23060911F137091201392
S1130BB080912113909122130FB6F894DEBF0FBEDB
S1130BC0CDBF6F3F3FEF730783079307D1F48EECDC
S1130BD092E09F938F938FEF92E09F938F938AE09D
S1130BE093E09F938F9381E193E09F938F931F935F
S1130BF00F930E94F4470FB6F894DEBF0FBECDBF2B
S1130C002FC02EEC32E03F932F9328EE33E040E0E8
S1130C1050E00E94D846122F032FF42EE52E2AE02E
S1130C2030E040E050E00E94D8465F934F933F93FA
S1130C302F93EF92FF920F931F938AE093E09F9379
S1130C408F938EEE92E09F938F93CE0101969F93A4
S1130C508F930E94F4470FB6F894DEBF0FBECDBF4A
S1130C608E010F5F1F4FC8010E945F3149E150E0C0
S1130C7060E270E0C8010E94AF4765E080E00E9436
S1130C80E2300F2EFDE9CF2EF3E1DF2EF02DF60139
S1130C9064857585868597852EEC32E03F932F9386
S1130CA00F2EF8EE4F2EF3E05F2E612C712CF02DF9
S1130CB0A30192010E94D8462A8F3B8F4C8F5D8FEF
S1130CC02AE030E040E050E00E94D8465F934F9322
S1130CD03F932F936A8D7B8D8C8D9D8D20E836E913
S1130CE048E950E00E94D8469F938F937F936F9377
S1130CF08AE193E09F938F938EEE92E09F938F937C
S1130D001F930F930E94F447C8010E945F3149E189
S1130D1050E060E270E0C8010E94AF4766E080E006
S1130D200E94E23088EB92E00E945F3167E080E04D
S1130D300E94E2308AE692E09F938F9381E293E0EF
S1130D409F938F931F930F930E94F447C8010E94AF
S1130D505F310F2EF9E1FF2EF02DF8012F2D1192A6
S1130D602A95E9F7F6016081718182819381A3015B
S1130D7092010E94D846E22ED32EC42E752E24E66C
S1130D8030E040E050E00E94D8465F934F933F9399
S1130D902F937F92CF92DF92EF9285E293E09F931D
S1130DA08F931F930F930E94F4470FB6F894DEBFFE
S1130DB00FBECDBFC8010E946D31F8011192FA94A3
S1130DC0E9F7AF92BF9286E393E09F938F931F93CB
S1130DD00F930E94F447C8010E945F310F900F9057
S1130DE00F900F900F900F906D960FB6F894DEBF92
S1130DF00FBECDBFDF91CF911F910F91FF90EF9068
S1130E00DF90CF90BF90AF907F906F905F904F90A6
S1130E1008950E940C3184E00E949B3A81E00E9474
S1130E20A93D80E00E94FC2F80E00C946C30089572
S1130E300E94F92F823009F456C0833009F47AC035
S1130E408111BCC00E940C3161E080E00E94E2305C
S1130E508CE393E00E945F3162E080E00E94E23024
S1130E608DE493E00E945F310E94FF2F8823E9F014
S1130E700E940C3161E080E00E94E23086E593E05C
S1130E800E945F3162E080E00E94E23087E693E0F6
S1130E900E945F3183E00E94FC2F0E9478308130F1
S1130EA009F08CC00C94B23D08950E940C3161E0AD
S1130EB080E00E94E23088E793E00E945F3162E0C4
S1130EC080E00E94E23089E893E00E945F3182E092
S1130ED00E94FC2F0E947830813009F06FC080E0BE
S1130EE00C94B23D08950E94AF3D811167C080E02B
S1130EF090E0A0E6B0E08093FE129093FF12A093DE
S1130F000013B09301138FEF0E94B23D81E00E9461
S1130F10FC2F81E00E946C300E940C3161E080E083
S1130F200E94E2308AE993E00E945F3182E00C94EF
S1130F30A93D08950E94AF3D8130C1F48FEF0E9416
S1130F40B23D87E00E94FC2F82E00E946C301BDCE3
S1130F500E940C3161E080E00E94E2308BEA93E071
S1130F600E945F3182E00C94A93D08950E94AF3D38
S1130F70823021F580E090E0A0E6B0E08093FE129C
S1130F809093FF12A0930013B09301138FEF0E946C
S1130F90B23D81E00E94FC2F81E00E946C3080E031
S1130FA016DC0E940C3161E080E00E94E2308AE9A4
S1130FB093E00E945F3182E00C94A93D08950E9461
S1130FC0F92F90E0FC013197EB30F10508F0DAC01D
S1130FD08827EE58FF4F8F4F0C94FA468091F40AFD
S1130FE09091F50A01968530910528F49093F50ABD
S1130FF08093F40A08951092F50A1092F40A8091ED
S11310000002882359F01092000261E080E00E94FF
S1131010E2308AE993E00C945F31089581E0809393
S1131020000261E080E00E94E2308CEB93E00C94DB
S11310305F3108950E940C3161E080E00E94E2304B
S11310408DEC93E00E945F3189E00E94FC2F0C94A8
S1131050703F08950E940C3161E080E00E94E2300C
S11310608EED93E00E945F3189E00C94FC2F08958B
S11310700E940C3161E080E00E94E2308FEE93E048
S11310800E945F3189E00C94FC2F08958091F40A4A
S11310909091F50A01968530910528F49093F50A0C
S11310A08093F40A08951092F50A1092F40A80913C
S11310B00002882359F01092000261E080E00E944F
S11310C0E2308BEA93E00C945F31089581E08093E1
S11310D0000261E080E00E94E2308CEB93E00C942B
S11310E05F3108950E940C3161E080E00E94E2309B
S11310F080E094E00E945F3189E00C94FC2F089515
S11311000E940C3161E080E00E94E23081E194E0D1
S11311100E945F3189E00C94FC2F08958091F40AB9
S11311209091F50A01968530910528F49093F50A7B
S11311308093F40A08951092F50A1092F40A8091AB
S11311400002882359F01092000261E080E00E94BE
S1131150E23086E294E00C945F31089581E080935C
S1131160000261E080E00E94E2308CEB93E00C949A
S11311705F3108950E94F82F84E00E94A93D8CE01D
S11311800C94FC2F08956130710599F01CF4672BC1
S113119041F0089562307105A1F063307105C9F022
S11311A00895E0ECF0E0908195FFFDCF8093C600B8
S11311B00895E8ECF0E0908195FFFDCF8093CE0098
S11311C00895E0EDF0E0908195FFFDCF8093D60087
S11311D00895E0E3F1E0908195FFFDCF809336011F
S11311E008950F931F93CF93DF93EC018B01672B2B
S11311F021F0888181112FC034C088818823B1F106
S11312008091C00085FF34C0FE0101900020E9F701
S11312103197EC1BFD0BE03CF10530F4BE018BEC87
S113122091E10E94B64709C082E1E7E3F4E0ABEC48
S1131230B1E101900D928A95E1F780E090E00E947F
S11312403F438091CB118093C60010928C12109270
S11312508B1281E00EC02196B80195DF899181112E
S1131260FBCFB80180E08FDF80E003C081E001C0E4
S113127080E0DF91CF911F910F9108951F93CF9339
S1131280DF93CDB7DEB76E970FB6F894DEBF0FBE0F
S1131290CDBF142F2AE0AE014F5F5F4F0E94BD47C0
S11312A0612F70E0CE0101969CDF6E960FB6F89424
S11312B0DEBF0FBECDBFDF91CF911F910895CF92B6
S11312C0DF92EF92FF920F931F93CF93DF938C01E2
S11312D0892B71F089E4809FF001819FF00D112426
S11312E0ED52FB4E8081918118161906B4F032C07C
S11312F08091CB11882371F1C0E0D0E0FE01E65368
S1131300FE4E818160E070E03EDF2196FE01E653EF
S1131310FE4E81818111F2CF1DC0C0E0D0E029E4EE
S1131320209FC001219F900D11249C012D563B4EFE
S11313307901690130E4C30ED11CF701EC0FFD1FE4
S11313408081B80120DF2196F60180819181C81740
S1131350D9079CF3DF91CF911F910F91FF90EF90EC
S1131360DF90CF90089583309105BCF429E4289F41
S1131370F001299FF00D1124ED56FB4E20E4DF010E
S11313801D922A95E9F78230910539F41092661579
S113139010926515109267150895892B39F483EC22
S11313A0EAECF1E1DF011D928A95E9F708958330B3
S11313B0910564F425E4289FF001299FF00D112480
S11313C0E259FA4EDF011D922A95E9F7892B71F44F
S11313D010924E0C10924D0C8BE795E0EFE4FCE07C
S11313E0DF019C011D9221503040E1F70895CF9216
S11313F0DF92EF92FF920F931F93CF93DF936C01D1
S1131400062F7A01122FAFDF29E42C9DC0012D9DF8
S1131410900D11248D569B4EFC01E05CFF4F118210
S1131420108220813181A9014F5F5F4F5183408336
S1131430DC01A20FB31F4AEA4C9320813181A90138
S11314404F5F5F4F51834083DC01A20FB31F1C9396
S113145020813181A9014F5F5F4F51834083006830
S1131460FC01E20FF31F0083812F90E0019718160F
S1131470190604F5E701AC014E0D5F1D89E48C9D4E
S1131480B0018D9D700D11246D567B4EDB01A05C67
S1131490BF4FED91FC9111978991E60FF71F80835F
S11314A08D919C911197019611969C938E93C417DC
S11314B0D50779F729E42C9DC0012D9D900D1124A9
S11314C0EC01CD56DB4E7E0120E4E20EF11CF70167
S11314D0C080D18096012F5F3F4F31832083612FDD
S11314E08B569B4E0E945614FE01EC0DFD1D80830D
S11314F0F701808191819C012F5F3F4F31832083CD
S1131500FE01E80FF91F25E52083CE5BDF4F81E064
S11315108883DF91CF911F910F91FF90EF90DF901F
S1131520CF900895EF92FF920F931F93CF93DF9381
S1131530CDB7DEB7C054D1090FB6F894DEBF0FBEE5
S1131540CDBF6091651570916615161617066CF47B
S1131550FE01319680E090E0DC01AB5DBA4E2C9147
S11315602193019668177907B9F7E5E6F5E1118249
S11315701082808191819C012F5F3F4F31832083B2
S1131580DC01AB5DBA4E2AEA2C93808191819C01E7
S11315902F5F3F4F31832083DC01AB5DBA4E6C93E8
S11315A0808191819C012F5F3F4F31832083FC0117
S11315B0EB5DFA4E2AE92083CB0101971816190630
S11315C0CCF4FE013196AE01460F571F05E615E136
S11315D0D8018D919C9111979C012F5F3F4F1196DB
S11315E03C932E9321918B5D9A4EDC012C93E4174E
S11315F0F50771F705E615E1F801E080F180C70110
S113160001969183808387E295E10E945614F70145
S1131610EB5DFA4E8083D8018D919C9111979C01CA
S11316202F5F3F4F11963C932E93FC01EB5DFA4ED6
S113163025E5208381E080936715C05CDF4F0FB6FA
S1131640F894DEBF0FBECDBFDF91CF911F910F91F4
S1131650FF90EF9008950E94181A0E943A1A0C9471
S1131660D91708954F925F926F927F928F929F92B3
S1131670AF92BF92FF920F931F93CF93DF93CDB797
S1131680DEB7E5970FB6F894DEBF0FBECDBFF82ED8
S1131690198290E0FC013197E732F10508F057C454
S11316A08827E358FF4F8F4F0C94FA4682E00E943C
S11316B09B3A0E940C3164E080E00E94E23089E4AD
S11316C094E00E945F3181E4898347C480E00E94F2
S11316D09B3A0E940C3172D981E489833EC40E94F2
S11316E0983A823031F48BEF95E159D581E48983BE
S11316F034C482EA898331C40E94983A823009F55D
S1131700AADF0E94121A0E94D6150E94CC150E94CC
S113171014160E94DD160E94D11580E00E94EA157D
S11317200E945A370E940C3163E080E00E94E2304C
S11317308FE594E00E945F3181E489834098A89505
S1131740FECF82EA898309C40E94983A823051F418
S11317500E94AA0221E244EB52E167E082E090E0B9
S113176046DEF8C382EA8983F8C30E94983A82303D
S113177069F580E2E4EBF2E1DF011D928A95E9F775
S11317808091FB158823A9F083E090E09C012F5FF2
S11317903F4FDC01A850BA4E4C914193AC014250EA
S11317A05109D901A850BA4E6C91C9016111EECF0B
S11317B002C040E050E0FA01EC56FD4E10A284E96C
S11317C092E10E94680281E48983C7C382EA898323
S11317D0C4C30E94983A823061F40E94AA0223E0B2
S11317E044ED52E16BE082E090E001DE81E4898324
S11317F0B4C382EA8983B1C30E94983A823069F4FF
S11318008091FB152091FC1590E0922B9093D512BA
S11318108093D41281E48983A0C382EA89839DC31F
S11318200E94983A823021F580E00E94B8164B015C
S11318305C01F8940E94CC15C501B4016052710991
S1131840810991098E010C5F1F4F20E230E040E0D6
S113185050E00E946C160E94DD160E94D115789407
S11318604B895C8925E06FE082E090E0C0DD72C3C3
S113187082EA898372C30E94983A823019F481E41F
S113188089836BC382EA898368C30E94983A823051
S113189061F40E94200325E042E25BE061E182E022
S11318A090E0A5DD81E4898358C382EA898355C326
S11318B00E94983A8230B9F44091FB159091FC153E
S11318C08091FD152091FE15EAE0FBE050E0592BD4
S11318D0518F408F90E0922B938F828F0E940E0342
S11318E081E489833AC382EA898337C30E94983AA0
S11318F0823009F065C080E00E94B8164B015C019B
S113190080E00E94C716861A970AA80AB90A689442
S113191014F8B694A794979487941694D1F780E01A
S11319200E94C7162B013C0180E00E94B816641582
S1131930750586059705D8F480E00E94B8164B011A
S11319405C0180E00E94C716B0E28B1A9108B0EEE9
S1131950AB0ABFEFBB0A861A970AA80AB90A6894A9
S113196014F8B694A794979487941694D1F7809119
S1131970FB15813491F410926D1583E18093681501
S113198081E090E0A0E0B0E08093691590936A153F
S1131990A0936B15B0936C15DDC281149104A1045E
S11319A0B10419F081E080936D1589829A8223E055
S11319B0AE014F5F5F4F63E182E090E018DDCAC281
S11319C082EA8983CAC20E94983A8230A1F4E3E38E
S11319D0F3E1108212821182EDE7F3E112821182A7
S11319E010820E94781A0E94121A35DE0E943A3F31
S11319F081E48983B2C282EA8983AFC20E94983AA1
S1131A00823051F425E049E253E165E182E090E05F
S1131A10EEDC81E48983A1C282EA89839EC20E94AA
S1131A20983A8230E1F43091FB154091FC15809195
S1131A30FD152091FE1590E0A0E0B0E0DC019927AF
S1131A408827942B832BB22B8093291390932A13EA
S1131A50A0932B13B0932C1381E489837EC282EA72
S1131A6089837BC20E94983A823051F425E04DE28A
S1131A7053E167E182E090E0BADC81E489836DC2DE
S1131A8082EA89836AC20E94983A8230E1F43091F2
S1131A90FB154091FC158091FD152091FE1590E0F9
S1131AA0A0E0B0E0DC0199278827942B832BB22B8C
S1131AB080932D1390932E13A0932F13B093301370
S1131AC081E489834AC282EA898347C20E94983AA0
S1131AD0823041F58091FB15813071F018F082302D
S1131AE0A9F01DC00E94D80223E045E454E163E05C
S1131AF082E090E07CDC13C00E94D80223E049E439
S1131B0054E163E082E090E072DC09C00E94D802F4
S1131B1023E04DE454E163E082E090E068DC81E49A
S1131B2089831BC282EA898318C20E94983A823050
S1131B3089F58091FB15813089F018F08230D9F055
S1131B4026C08091FC152091FD1590E0922B909376
S1131B504614809345140E94FC0219C08091FC1520
S1131B602091FD1590E0922B90934A148093491490
S1131B700E94FC020CC08091FC152091FD1590E0A0
S1131B80922B90934E1480934D140E94FC0281E496
S1131B908983E3C182EA8983E0C10E94983A823052
S1131BA009F4D8C182EA8983D8C10E94983A823064
S1131BB009F4D0C182EA8983D0C10E94983A823064
S1131BC009F071C02091FB158090FC158091FD15E2
S1131BD0912CA12CB12CBA2CA92C982C882490E0FF
S1131BE0A0E0B0E0DC0199278827880E991EAA1E80
S1131BF0BB1E820E911CA11CB11C80E00E94B81671
S1131C00DC01CB019052A109B109689414F8B6958E
S1131C10A795979587951694D1F788159905AA05E0
S1131C20BB05E8F489821A821B8224E0AE014F5F6F
S1131C305F4F63E182E090E0DADB10926D1589E199
S1131C408093681581E090E0A0E0B0E0809369158E
S1131C5090936A15A0936B15B0936C1521C01092E4
S1131C606D1589E18093681580E00E94B816DC0147
S1131C70CB019052A109B109689414F8B695A795BF
S1131C80979587951694D1F788199909AA09BB09DC
S1131C908093691590936A15A0936B15B0936C1596
S1131CA081E489835AC182EA898357C10E94983AA0
S1131CB08230B9F48EE489832091FB158091FC1560
S1131CC0EAE0FBE090E0982F8827820F911D938330
S1131CD082838091FD15848F0E940E0381E48983A1
S1131CE03CC182EA898339C10E94983A823089F4DE
S1131CF0EAE0FBE0828193819D838C83848D8E83D3
S1131D0024E0AE014C5F5F4F62E282E090E06FDB63
S1131D1021C182EA898321C10E94983A823059F410
S1131D208BEF95E10E94F80321E2AC0160E282E0CE
S1131D3090E05DDB0FC182EA89830FC10E94983A6B
S1131D40823039F48BEF95E10E94020481E48983A7
S1131D5004C182EA898301C10E94983A8230A1F4C5
S1131D608EE489832091FB158091FC1590E0982FD7
S1131D708827820F911D90930B0B80930A0B0E946E
S1131D800E0381E48983E9C082EA8983E6C00E9464
S1131D90983A823041F423E04AE05BE062E282E078
S1131DA090E025DBD7C082EA8983D7C00E94983AA5
S1131DB0823009F03BC05E01E4E2AE0EB11C82E168
S1131DC0D5011D928A95E9F780E0D2D72B013C0119
S1131DD0F894E2D6C301B2016052710981099109F4
S1131DE08E010C5F1F4F20E230E040E050E074D7DA
S1131DF0E4D7D7D678948CE0FE013B96D5010190C8
S1131E000D928A95E1F780911F1390912013A09170
S1131E102113B091221388AB99ABAAABBBAB21E1E0
S1131E20A50164E282E090E0E2DA94C082EA898368
S1131E3094C00E94983A823009F067C08EE4898386
S1131E403091FB154091FC158091FD152091FE15F4
S1131E50EDE9F3E190E0A0E0B0E0DC019927882708
S1131E60942B832BB22B84839583A683B7833091E1
S1131E70FF1540910016809101162091021690E002
S1131E80A0E0B0E0DC0199278827942B832BB22BA8
S1131E9080879187A287B3873091031640910416F7
S1131EA0809105162091061690E0A0E0B0E0DC01D8
S1131EB099278827942B832BB22B84879587A68711
S1131EC0B787309107164091081680910916209122
S1131ED00A1690E0A0E0B0E0DC0199278827942B53
S1131EE0832BB22B80931F1390932013A093211361
S1131EF0B09322130E94B6320E9453370E94C2321A
S1131F000E94400481E4898328C082EA898325C031
S1131F1081E090E028DA08E316E1F801408151817C
S1131F20455051096BEF75E18CED94E10E94A64791
S1131F30D8018D919C91059790931D1580931C1544
S1131F4081E090E0BCD981E090E031DA03C081E027
S1131F50898303C08981882361F080916715811189
S1131F6008C022E0AE014F5F5F4F6F2D82E090E02A
S1131F703EDAE5960FB6F894DEBF0FBECDBFDF9113
S1131F80CF911F910F91FF90BF90AF909F908F9032
S1131F907F906F905F904F900895CF93DF938091DF
S1131FA0F90A882321F0813009F444C069C0809182
S1131FB03C16823009F064C08091FA158A3199F593
S1131FC08091FB15482F50E020910A0B30910B0BA8
S1131FD04217530759F1823048F580911E1582301B
S1131FE029F1C9EFD5E1488150E0415051096BEF27
S1131FF075E18CED94E10E94A647888190E00197F9
S113200090931D1580931C1581E080931E151092EA
S1132010F80A1092F70A8093F90A62E08FE394E1D8
S11320200E94524103C08091FA151CDB82E090E0CB
S1132030BED926C080916715813061F4109267156E
S113204071DA82E090E03BD982E090E08CD9109282
S1132050F90A16C08091F70A9091F80A8330910525
S113206030F401969093F80A8093F70A09C010920D
S1132070F80A1092F70A82E090E075D91092F90AF2
S1132080DF91CF910895CF92DF92EF92FF920F9359
S11320901F93CF93DF93CDB7DEB7A3970FB6F89412
S11320A0DEBF0FBECDBF80E072D66B017C01809194
S11320B0691590916A15A0916B15B0916C150197F3
S11320C0A109B84F880F991FAA1FBB1F880F991F1A
S11320D0AA1FBB1F880F991FAA1FBB1F880F991F18
S11320E0AA1FBB1F880F991FAA1FBB1FC80ED91E8A
S11320F0EA1EFB1E20EEC2162FE1D20620E2E20603
S1132100F10470F0C701B60120EE3FE140E250E077
S11321100E94D8466B017C0120E2D20EE11CF11C26
S11321203BD58E010F5F1F4F20E230E040E050E0CE
S1132130C701B601D1D541D634D52CE1A80163E15C
S113214082E090E054D980E013D6C616D706E8069C
S1132150F906B1F4109268151092691510926A1577
S113216010926B1510926C158FEF8BA38AA389A321
S113217024E0AE014F5D5F4F63E182E090E037D928
S1132180A3960FB6F894DEBF0FBECDBFDF91CF91FB
S11321901F910F91FF90EF90DF90CF9008951F93C0
S11321A0CF93DF93EC01F8940E947B3168811DEC9E
S11321B0619F812D112486958695869540E1849FA3
S11321C090011124880F982F990F990F890F681B7C
S11321D0622B688386E00ED46981619F812D11246E
S11321E086958695869590E1899F90011124880FA4
S11321F0982F990F990F890F681B262B2983622F1B
S11322006F7185E0F7D36A81619F112D11241695B2
S11322101695169520E1129FC0011124110F912FDC
S1132220990F990F190F611B862B8A83682F6F737F
S113223084E0E0D36B81677083E0DCD38C818C30E5
S113224030F18D3070F09BEA899F912D1124969581
S113225096959695292F220F920F990F990F891B06
S11322608C839C818DEC989F812D11248695869575
S1132270869540E1849F90011124880F382F330FF5
S1132280330F830F981B292B20622C8318C08111D4
S113229002C08CE08C839C818DEC989F812D11244D
S11322A086958695869540E1849F90011124880F38
S11322B0382F330F330F830F981B922B9C836C8121
S11322C0862F80648C836F77606482E093D36D8102
S11322D08DEC689F812D112486958695869590E1D5
S11322E0899F90011124880F982F990F990F890FB6
S11322F0681B262B2D83622F6F7781E07BD360E0F0
S113230080E078D30E9489317894DF91CF911F9136
S11323100895FC01A0E3BBE012968C91129785838B
S113232013968C911397848314968C9114978383BA
S113233015968C911597828316968C9116978183A6
S113234017968C9180830895FC01ADE8B2E115964F
S11323508C911597858314968C9114978483139686
S11323608C911397838312968C9112978283119682
S11323708C91119781838C9180830895EF92FF92C1
S11323800F931F93CF93DF93CDB7DEB72C970FB680
S1132390F894DEBF0FBECDBF90918D128091370BA4
S11323A0981313C090918E128091360B98130DC020
S11323B090918F128091350B981307C090919012D1
S11323C08091340B981709F404C1CE010796A1DF5C
S11323D0CE010196B9DFEF80F88409851A852B8533
S11323E03C8549815A816B817C818D819E810E94CB
S11323F09D4220932A0B30932B0B40932C0B50932C
S11324002D0B60932E0B70932F0B31503A3078F4D0
S113241021110DC080912C0B90912D0BA0912E0BAE
S1132420B0912F0B892B8A2B8B2B09F4D2C0F894F3
S11324300E947B310F2EFDE8EF2EF2E1FF2EF02DEE
S1132440F70190811DEC919F812D1124869586952D
S11324508695682F6295607F880F282F220F220FA0
S1132460820F981B692B86E0C5D2F7018181819F79
S1132470912D1124969596959695692F6295607F76
S1132480990F292F220F220F920F891B682B6F712E
S113249085E0B0D2F7018281819F112D1124169518
S11324A016951695612F6295607F110F912F990FE4
S11324B0990F190F811B682B6F7384E09BD261E025
S11324C083E098D2F70183818C3048F18D3078F025
S11324D09BEA899F912D1124969596959695292F7F
S11324E0220F920F990F990F891B80939012EDE898
S11324F0F2E193818DEC989F812D11248695869528
S1132500869540E1849F90011124880F382F330F62
S1132510330F830F981B292B206223831BC0811147
S113252003C08CE080939012EDE8F2E193818DEC8E
S1132530989F812D112486958695869540E1849FE8
S113254090011124880F382F330F330F830F981BFA
S1132550922B93830F2EFDE8EF2EF2E1FF2EF02D48
S1132560F7016381862F806483836F77606482E0E0
S113257041D2F70184811DEC819F912D1124969500
S113258096959695692F6295607F990F292F220F52
S1132590220F920F891B682B6F7781E02BD2F701F2
S11325A08581819F112D1124169516951695612FFD
S11325B06295607F110F912F990F990F190F811B4D
S11325C0682B6F7780E016D20E9489317894F701E6
S11325D016822C960FB6F894DEBF0FBECDBFDF91E6
S11325E0CF911F910F91FF90EF900895EF92FF927A
S11325F00F931F93CF93DF931F92CDB7DEB7F89459
S11326000E947B3148E050E061E070E080E39BE0B1
S11326100E94AF47E12CF12C00E31BE0BE016F5F89
S11326207F4F80E0AED18981982F907796959695CB
S11326309695292F220F220F920F8F70890FF80180
S11326408283BE016F5F7F4F81E09BD18981982F88
S11326509077969596959695292F220F220F920F93
S11326608F70890FF8018383BE016F5F7F4F82E013
S113267088D1298124FB882780F9880F982F990F06
S1132680990F890F922F9F70890FF801848325FF7A
S113269007C091E091838C3040F4845F848305C04B
S11326A0F80111828C3009F41482BE016F5F7F4FF0
S11326B086E067D18981982F907F96959695969517
S11326C0292F220F220F920F8F70890FF801878311
S11326D0BE016F5F7F4F85E054D1898184FB9927C8
S11326E090F9990F292F220F220F920F8F70890FC3
S11326F0F8018683BE016F5F7F4F84E042D18981F8
S1132700982F9073969596959695292F220F220FC0
S1132710920F8F70890FF8018583BE016F5F7F4F21
S113272083E02FD189818770F8018083858181506E
S11327308F3138F5868181508C3018F5878180512E
S11327408435F8F484818831E0F483818C33C8F4CF
S113275082818C33B0F40E9489317894F3E0EF16CF
S1132760F1044CF0E0E3FBE081E08583868317828B
S113277014828383128280919312813059F4FEDD96
S113278009C08FEFE81AF80AE3E0EE16F10409F045
S113279045CFE1CF0F90DF91CF911F910F91FF9023
S11327A0EF900895CF93DF93EC0120DFE0E3FBE0AB
S11327B082818D8383818C8384818B8385818A83C9
S11327C08681898387818883DF91CF910895CF9211
S11327D0DF92EF92FF920F931F93CF93DF938B01BE
S11327E0DB011C92FC0120E030E00F2EF3E0EF2E21
S11327F0F12CF02D02C031969E0169014081E9015E
S11328002196842F90E0C0970A9768F4D8018C91A0
S1132810880F982F990F990F890F8C939081890FA6
S113282080538C932FC0CE01B7010E94C546892BDB
S113283071F528303105B9F038F42230310559F0FA
S11328402530310541F01EC02B303105A1F02E306A
S1132850310589F017C04F32A9F4D80111961C92A2
S11328600F5F1F4F0FC04C3231F6D80111961C92E6
S11328700F5F1F4FC0CF4A3329F4D80111961C9221
S11328800F5F1F4F6E01C131D1050CF4B4CF81E04D
S1132890B1E1CB16D10409F080E0DF91CF911F9113
S11328A00F91FF90EF90DF90CF900895662359F039
S11328B0FC019C01260F311D80E09191890FE217E4
S11328C0F307D9F701C080E081950895FC012081C8
S11328D030E0205331092A30310570F431960E96D8
S11328E0219130E0205331092A30310538F4E817BA
S11328F0F907B1F781E0089580E0089580E0089534
S1132900FF920F931F93CF93DF93EC0121E030E00C
S1132910F12C4AE00FE01EE07DE06CE05BE001C0DA
S11329202F5FE99180ED8E0F8A30D8F08E2F90E0E2
S1132930FC01E154F109E632F10580F48827EC55F5
S1132940FF4F8F4F0C94FA46852F0BC0862F09C07A
S1132950872F07C0812F05C0802F03C08F2D01C092
S1132960842F213021F4382F3295307FD9CF380F7E
S11329702230B0F2832FDF91CF911F910F91FF90FE
S113298008950F931F93CF93C82F8B010E949C31FE
S1132990882301F180ED0E94F0318823E9F08C2F27
S11329A00E94F0318823D1F00E949C318823C1F029
S11329B081ED0E94F0318823A9F060E0C8010E94F3
S11329C02C32882389F00E94C63191E081110DC018
S11329D090E00BC090E009C090E007C090E005C013
S11329E090E003C090E001C090E0892FCF911F9147
S11329F00F910895CF93DF93C82FD62F0E949C3157
S1132A008823B1F080ED0E94F031882399F08C2F57
S1132A100E94F031882381F08D2F0E94F0318823A9
S1132A2069F00E94C63191E0811109C090E007C0AD
S1132A3090E005C090E003C090E001C090E0892FD1
S1132A40DF91CF910895E89AE9E6F0E08081826011
S1132A50808308951F920F920FB60F9211248F93C3
S1132A609F93F8948091380B9091390B0196909331
S1132A70390B8093380B78949F918F910F900FBEF0
S1132A800F901F90189584B1866084B9239885B1FE
S1132A9015B8209A2898249A2C98259A2D98089548
S1132AA0229A089523980895289A089528980895B5
S1132AB02D9A08952C9808952C9A0895299A08958A
S1132AC0299808952A9A08952A980895CF93C82F8B
S1132AD0E7DF88E18A95F1F700C0CC2314F4F2DF34
S1132AE001C0F2DFEBDFECDFC6FF02C0EBDF01C0A9
S1132AF0EBDFE4DFE5DFC5FF02C0E4DF01C0E4DFB4
S1132B00DDDFDEDFC4FF02C0DDDF01C0DDDFD6DFD5
S1132B10D7DFC3FF02C0D6DF01C0D6DFCFDFD0DFEF
S1132B20C2FF02C0CFDF01C0CFDFC8DFC9DFC1FFF2
S1132B3002C0C8DF01C0C8DFC1DFC2DFC0FF02C0FE
S1132B40C1DF01C0C1DFBADFADDFBADFBDDFCF91C6
S1132B5008951F93CF93DF93A5DF88E18A95F1F75A
S1132B6000C0C8E0D0E0DD0F13B1A8DF13FDD160D1
S1132B70A7DFC150C1F78D2FDF91CF911F91089529
S1132B80CF93C82F93DF81E0A1DF80E09FDF8C2FFC
S1132B909DDF8ADFCF91089589DF86E097DF84CFB8
S1132BA0089584DF84E092DF7FCF0895F89484DF72
S1132BB0F3DF7CDF88E98ADF77DFF3DF7BDF78947C
S1132BC008957ADFE9DF72DF88E8DADF6DDFE9DFB5
S1132BD071CF08951F93CF93DF93C82F11E0811114
S1132BE010E01195F89468DFD7DF60DF82E46EDFD0
S1132BF0C11105C085E56ADF85E568DF0EC080E0A8
S1132C0065DF80E063DF09C0812F60DF2197E1F792
S1132C104BDFC7DF4FDF789403C0C0E1D0E0F4CFCF
S1132C20DF91CF911F91089541DF87EC4FDF3CCFB7
S1132C3008951F93CF93DF93C62FD72F182F36DF16
S1132C4080E244DF812F42DF8D2F40DF8C2F3EDF77
S1132C502BDFDF91CF911F9108958F929F92AF92B6
S1132C60BF92CF92DF92EF92FF92CF93DF93D82E51
S1132C70E92E4B01C22FD32FF42EF89417DF82E0F4
S1132C8025DF8F2D23DF8D2F21DF8C2F1FDFA12C3C
S1132C90B12C81149104A104B10489F0CD2DDE2D51
S1132CA0C12CD12C7601899111DF8FEFC81AD80A73
S1132CB0E80AF80AC814D904EA04FB04A0F3F4DE11
S1132CC07894DF91CF91FF90EF90DF90CF90BF90F9
S1132CD0AF909F908F9008958F929F92AF92BF92E2
S1132CE0CF92DF92EF92FF920F931F93CF93DF93D4
S1132CF0C62FD72FF82E49015A01F894D7DE83E066
S1132D00E5DE8F2DE3DE8D2FE1DE8C2FDFDE8114F7
S1132D109104A104B10489F0C02FD12FC12CD12C6E
S1132D20760117DF89938FEFC81AD80AE80AF80AE0
S1132D308C149D04AE04BF04A1F7B6DE7894DF9131
S1132D40CF911F910F91FF90EF90DF90CF90BF90A4
S1132D50AF909F908F900895FC01A62FB72F9C01F0
S1132D60205E3F4F91919D93E217F307D9F70895A1
S1132D70811109C0609102027091030280910402E2
S1132D8090910502089560E070E0CB0108958111EF
S1132D9009C0609106027091070280910802909127
S1132DA00902089560E070E0CB0108957FDE86E6B5
S1132DB08DDE89E98BDE78CE0895CF93DF93F89486
S1132DC071DE74DE85E082DE79DE7ADE77DE78DE3F
S1132DD075DE76DE73DE74DE71DE72DE6FDE70DE6B
S1132DE06DDE6EDE83B183B183B183B11B9B26C0DC
S1132DF0C0E0D0E003C02196813001F55FDE60DEE3
S1132E005DDE5EDE5BDE5CDE59DE5ADE57DE58DEFA
S1132E1055DE56DE53DE54DE51DE52DE83B183B11D
S1132E2083B183B183B183FB882780F9E3E3F7E0BF
S1132E303197F1F7C536D105F1F6B8DF41DE44DE4E
S1132E4033DE7894DF91CF910895B0DEA5DE60E0A3
S1132E5070E0CB01EEDEB1DFA4DE80E0BBCE0895EE
S1132E60A5DE9ADE60E070E180E090E0E2DEA5DFBE
S1132E7098DE80E0AFCE08950F931F93CF93DF9336
S1132E80CDB7DEB7A0970FB6F894DEBF0FBECDBFA7
S1132E9080910102843620F0D8DFE2DF1092010233
S1132EA001E012E0F801808189832181928183818C
S1132EB02A839B838C832581968187812D839E839E
S1132EC08F83918582859887898783858A8763E143
S1132ED0CE010196EBDC88A369DE5EDEF801208179
S1132EE0822F90E0A0E0B0E0880F991FAA1FBB1FBB
S1132EF0880F991FAA1FBB1F880F991FAA1FBB1FEA
S1132F00880F991FAA1FBB1F9C01AD01220F331FFD
S1132F10441F551F60E270E0CE0101969EDE4DDF36
S1132F2040DE80E057DE42DE37DEF8012081822F6A
S1132F3090E0A0E0B0E080589F4FAF4FBF4F880FA4
S1132F40991FAA1FBB1F880F991FAA1FBB1F880F99
S1132F50991FAA1FBB1F880F991FAA1FBB1F9C0183
S1132F60AD01220F331F441F551F60E270E0CE01F4
S1132F70019673DE22DF15DE80E02CDEF80180810D
S1132F808F5F8083A0960FB6F894DEBF0FBECDBFCF
S1132F90DF91CF911F910F91089508DEFDDD60E070
S1132FA070E280E090E045DE08DFFBDD80E012CED9
S1132FB00895BF92CF92DF92EF92FF920F931F93E7
S1132FC0CF93DF93CDB7DEB7C058D1090FB6F894CD
S1132FD0DEBF0FBECDBF10920102F894DD24D3945E
S1132FE0C12C0F2EF1E0EF2EF2E0FF2EF02DBB24CA
S1132FF0B394F7018081843608F087C0CDDDF701F2
S11330006081862F90E0A0E0B0E0880F991FAA1F8E
S1133010BB1F880F991FAA1FBB1F880F991FAA1FC8
S1133020BB1F880F991FAA1FBB1FBC01CD01660FD0
S1133030771F881F991F8E010F5F1F4F20E230E01A
S113304040E050E049DEB9DEACDDA6DDF701608189
S1133050862F90E0A0E0B0E080589F4FAF4FBF4F65
S1133060880F991FAA1FBB1F880F991FAA1FBB1F78
S1133070880F991FAA1FBB1F880F991FAA1FBB1F68
S1133080BC01CD01660F771F881F991F005E1F4F7B
S113309020E230E040E050E01FDE8FDE82DD8981F7
S11330A0F701908189132AC018A163E1CE0101962A
S11330B0FDDB18130CC0F70180818F5F8083BE0194
S11330C06F5B7F4FCE01019647DECB2C1AC0219651
S11330D01FAD219763E1CE018196E8DB18130CC084
S11330E0F70180818F5F8083BE016F5B7F4FCE01CC
S11330F0819632DECB2C05C0D39403C08F3F29F0D8
S1133100D394F3E0FD1508F074CFCC2009F474C017
S1133110E1E0F2E022968FAD22978F5F80832496C0
S11331208FAD249725964FAD259750E060E070E071
S1133130BA0155274427582B23968FAD2397482B44
S1133140418352836383748327962FAD27972896F0
S11331508FAD289790E0A0E0B0E0DC0199278827A4
S1133160922B26962FAD2697822B85839683A78351
S1133170B0872A962FAD2A9730E0322F222729963E
S11331801FAD2997210F311D328721872B962FAD33
S11331902B972387481759076A077B0751F17F014B
S11331A081E0808BF9DCF7016581768187819085E8
S11331B08E010F591F4F20E230E040E050E08CDDDB
S11331C0FCDDEFDCA4968FADA49790E0A0E0B0E026
S11331D0DC0199278827A3962EAD3FADA397820FD4
S11331E0931FA11DB11DF70184879587A687B78713
S11331F02AC01092110227C080910102811116C0C9
S1133200E1E0F2E080E090E2A0E0B0E0818392832C
S1133210A383B48385839683A783B087128611869C
S1133220138613DE1DDEB9DE27DE0DC080E090E2DA
S1133230A0E0B0E08093020290930302A093040202
S1133240B0930502419A7894C058DF4F0FB6F894B2
S1133250DEBF0FBECDBFDF91CF911F910F91FF90C5
S1133260EF90DF90CF90BF900895CF92DF92EF92CE
S1133270FF92621773078407950758F46B017C016A
S113328095DC8ADCC701B601D4DC97DD8ADC80E0FA
S1133290A1DCFF90EF90DF90CF9008950F931F93E0
S11332A0CF93DF93EC0180910A0290910B028F3F40
S11332B02FEF920729F4E1E0F2E023852F5F2387C3
S11332C00196E1E0F2E09287818799838883838580
S11332D08A836181728183819481603EEFE17E07FC
S11332E0E0E28E079105F8F001E012E080E090E35F
S11332F0A0E0B0E0F80185839683A783B08780E0DF
S113330090E2A0E0B0E081839283A383B48320EEB3
S11333103FE140E250E060E070E280E090E0A5DF51
S1133320F801108A4AC00091060210910702209108
S11333300802309109026017710782079307E9F5C3
S11333408B019C011F7022273327012B022B032B97
S1133350A1F56115F0E27F078105910571F120EE79
S11333603FE140E250E081DF809106029091070244
S1133370A0910802B0910902905FAF4FBF4F803E09
S11333802FE1920720E2A207B10548F480930602D8
S113339090930702A0930802B09309020CC080E046
S11333A090E2A0E0B0E08093060290930702A0931D
S11333B00802B0930902109211026FE1CE0176DA8D
S11333C08F8FF4DBE9DB01E012E0F8012181328127
S11333D04381548160E270E0CE013FDCEEDCE1DB4E
S11333E080E0F8DBF80181819281A381B481809629
S11333F0A11DB11D81839283A383B483DF91CF91F7
S11334001F910F9108953FDB4FDB54DB51DB58DBF9
S11334108FEF97E40197F1F700C00000C7DCD1DB20
S1133420C8CD0895E1E0F2E012861186138608956E
S1133430CF92DF92EF92FF92C12CD12C7601689447
S1133440D5F8A895B3DBA8DBC701B601F2DBB5DC80
S1133450A8DB80E0BFDB80E1D80EE11CF11CC114C5
S113346080E2D806E806F10461F7FF90EF90DF9060
S1133470CF9008959BDB90DB60E070E0CB01D9DB5B
S11334809CDC8FDB80E0A6DB91DB86DB60E070E117
S113349080E090E0CEDB91DC84DB80E09BCB089580
S11334A085DB7ADB60E070E880E490E0C2DB85DCF9
S11334B078DB80E08FCB0895CF92DF92EF92FF927A
S11334C0CF93DF93EC016A017B0170DB65DBA7011D
S11334D0960160E170E0CE01C0DB6FDC62DB80E06E
S11334E079DBDF91CF91FF90EF90DF90CF9008953B
S11334F0CF93DF93F894D4DFC3E3D3E181E08883EF
S11335006FE0CE01D3D98F8740E050E860E470E0EB
S1133510CE01D2DF7894DF91CF910895CF92DF92DC
S1133520EF92FF92F894E3E3F3E180818F5F80836D
S1133530C82ED12C91E0C91AD108CC0CDD1CCC0CBE
S1133540DD1CCC0CDD1CCC0CDD1CE12CF12C90E83A
S1133550D90E90E4E91EF11C90E4C91696E8D90648
S113356090E4E906F10468F4882359F06FE0CF0190
S11335709DD980934213B701A60183E393E19CDFB5
S113358004C081E080933313B3DF7894FF90EF900D
S1133590DF90CF900895CF92DF92EF92FF920F9336
S11335A01F93CF93DF938C016A017B01E901F4DA65
S11335B09E01DD0F440B550BC701B6018DDBF1DA1B
S11335C0DF91CF911F910F91FF90EF90DF90CF90FB
S11335D008956F927F928F929F92AF92BF92CF92F3
S11335E0DF92EF92FF920F931F93CF93DF93CDB7A8
S11335F0DEB760970FB6F894DEBF0FBECDBFF89468
S1133600A12CB12C882483949924939403E313E18B
S113361066246394712CC92C992493949C0CD12C0A
S1133620E12CF12C88E0D80E84E0E81EF11CCC0CCF
S1133630DD1CEE1CFF1CCC0CDD1CEE1CFF1CCC0C9A
S1133640DD1CEE1CFF1CCC0CDD1CEE1CFF1CE0E49E
S1133650CE16E6E8DE06E0E4EE06F104A8F4B701CF
S1133660A601405151096109710920E130E0C80106
S113367092DF20E130E0B701A601CE0101968BDF95
S113368029812F3F69F416C080E1FE013196D801EB
S113369001900D928A95E1F7F801608229DF0AC052
S11336A0C92CF801808190E0019630E082179307DD
S11336B009F4B2CFF801F7846FE0C801F7D8F8161F
S11336C051F0FFEFAF1ABF0A872C83E0A816B104AC
S11336D009F0A1CF812C7894E3E0AE16B10414F084
S11336E0419A02C0811005C0109235131092341310
S11336F0812C882D60960FB6F894DEBF0FBECDBF27
S1133700DF91CF911F910F91FF90EF90DF90CF90B9
S1133710BF90AF909F908F907F906F9008950F937C
S11337201F93CF93DF938C01EB0140DA35DA2881C4
S113373039814A815B8160E270E0C8018EDA3DDB49
S113374030DA80E047DAF8018181811104C081E038
S11337500E94E7030BC088819981AA81BB8180966E
S1133760A11DB11D88839983AA83BB83DF91CF9167
S11337701F910F910895CF92DF92EF92FF920F93D2
S11337801F936B017C018A0107DA20E230E040E0FC
S113379050E0C701B601A0DA10DB03DA1F910F91E4
S11337A0FF90EF90DF90CF9008958F929F92AF9209
S11337B0BF92CF92DF92FF920F931F93CF93DF9329
S11337C0CDB7DEB7A0970FB6F894DEBF0FBECDBF5E
S11337D0FE01319680E2DF011D928A95E9F7F12C12
S11337E0C12CD12C0F2E812C912CF0E6AF2EB12CB4
S11337F0F02DD2D98E010F5F1F4F20E230E040E060
S113380050E0C501B40168DAD8DACBD94A8150E076
S11338104B5F5F4FFE01329681E090E02191F20E02
S1133820019648175907D4F7F194E1E0F0E0EC0F62
S1133830FD1FE80FF91F8081F81214C0A895B0E2AB
S11338408B0E911CA11CB11C8FEFC81AD80AB601AB
S113385080E090E042E00E943E098A8181508E3FE0
S113386040F206C062E070E085E794E00E94F1084F
S11338708A81811107C081E00E94E70384E00E94ED
S1133880FC2F03C08AE00E94FC2F84E00E94A93D23
S1133890A0960FB6F894DEBF0FBECDBFDF91CF91D7
S11338A01F910F91FF90DF90CF90BF90AF909F90AA
S11338B08F900895CF92DF92EF92FF920F2EC12C3A
S11338C0D12CF0E6EF2EF12CF02D70D965D9C7017B
S11338D0B601AFD972DA65D980E07CD980E1D80E1F
S11338E0E11CF11CC11480E1D80684E6E806F10469
S11338F061F7FF90EF90DF90CF90089581E090E022
S11339000E94B30981E090E00E94D709EBE3FBE059
S113391083E08187108608958F929F92AF92BF9221
S1133920CF92DF92EF92FF920F93CF93DF9380E0D9
S11339300E944D02EC01E5EBF3E1108E118E128E24
S1133940138E10A211A212A213A2CC3F83E0D807B7
S113395008F0A9C0A5ECB3E17E916E915E914E9101
S113396014964D935D936D937C931797AE17BF0791
S113397099F7A5EBB3E1AE0160E070E04D935D9380
S11339806D937C93139790966D917D918D919C91FD
S1133990939729EC33E1C190D190E190F1906C0DB3
S11339A07D1D8E1D9F1DE217F307A9F72DEC3CEC3E
S11339B04CEC5CEC0E941B4700E20E944447822EC0
S11339C0932EA42EB52EB694A79497948794B69468
S11339D0A794979487948092D5139092D613A0922B
S11339E0D713B092D813E091240BF091250B3097A4
S11339F009F080C00E9420038FEA93E10E94D21351
S1133A000E94D33B8090D5139090D613A090D713E7
S1133A10B090D8138091220B9091230BA0E0B0E0DA
S1133A2088159905AA05BB0548F5E091240BF0918A
S1133A30250B309719F1A5019401281B390B4A0B6A
S1133A405B0B60EA76E881E090E00E94B6469F0155
S1133A5040E050E00E94D8462093CD133093CE131B
S1133A604093CF135093D01310923A0BEDE9F3E146
S1133A70808991898F7D918B808B15C089288A28B4
S1133A808B2889F480913A0B91E0980F90933A0B2C
S1133A90853148F0EDE9F3E1808991898062918B69
S1133AA0808B10923A0B62E070E089E794E00E9408
S1133AB0F108BE0180E090E042E00E943E0962E02D
S1133AC070E08CE20E94C308C5EBD3E168A179A140
S1133AD08AA19BA142E00E943E0962E070E08CE270
S1133AE00E94C308688D798D8A8D9B8D42E00E9467
S1133AF03E090DC08091220B9091230BA0E0B0E011
S1133B0088159905AA05BB0508F0B8CF94CFDF91B5
S1133B10CF910F91FF90EF90DF90CF90BF90AF9037
S1133B209F908F900895ECE1FCE080E3DF011D920B
S1133B308A95E9F781E0818308951F93CF93DF93FA
S1133B40CDB7DEB7C958D1090FB6F894DEBF0FBEA2
S1133B50CDBF1A82198280911502823209F4EDC018
S1133B6020F4813209F4D4C048C1833219F084327C
S1133B70C1F043C162E070E084EB94E00E94F1087C
S1133B8080E090E00E94D7091092931260E070E008
S1133B908EEB94E00E94F10884E28093150282E0A7
S1133BA033C1AE014F5F5F4FBE016D5F7F4F88EC45
S1133BB094E00E947545182F62E070E081ED94E076
S1133BC00E94F10862E070E0CE0103960E94F108C1
S1133BD0113029F008F46EC01230C9F097C062E0C9
S1133BE070E08BED94E00E94F10883E2809315026B
S1133BF08091160C91E0980F9093160C833008F482
S1133C0085C084EC8093FA121092160C7FC062E097
S1133C1070E082EE94E00E94F108BE016D577F4F80
S1133C20CE0103960E94E7138823D1F1CD57DF4FCD
S1133C308881C358D04085518F3490F5CC57DF4FDD
S1133C408881C458D04081508C3050F5CB57DF4F19
S1133C508881C558D04081508F3110F5CA57DF4F45
S1133C608881C658D0408831D8F4C957DF4F88813D
S1133C70C758D0408C33A0F4C857DF4F8881C85848
S1133C80D0408C3368F487E0FE01ED57FF4FADE878
S1133C90B2E101900D928A95E1F781E0809393124D
S1133CA081E2809315021092160C1092150C10925A
S1133CB0140C2CC062E070E089EE94E00E94F108DC
S1133CC08091140C9091150C8630910530F4019676
S1133CD09093150C8093140C19C01092150C10922B
S1133CE0140C83E2809315028091160C91E0980FD6
S1133CF09093160C833050F0E4EEF2E1108A84ECD9
S1133D00868B81E2809315021092160C82E07CC0AF
S1133D1062E070E080EF94E00E94F10880E090E0BF
S1133D200E94D70960E070E08EEF94E00E94F108F1
S1133D3082E28093150282E067C08CE095E00E94E5
S1133D40FC45813021F080F18230E9F058C062E016
S1133D5070E088E195E00E94F10881E28093150209
S1133D608091160C91E0980F9093160C833008F410
S1133D7048C082EC8093FA1283E280931502109279
S1133D80160C81E041C062E070E083E295E00E949D
S1133D90F10883E2809315021092160C1092150C10
S1133DA01092140C80E030C08091140C9091150C8A
S1133DB08A30910538F401969093150C8093140C75
S1133DC082E022C01092150C1092140C81E28093B0
S1133DD015028091160C91E0980F9093160C833085
S1133DE090F0E4EEF2E1138A82EC868B83E2809316
S1133DF015021092160C81E007C082E005C082E033
S1133E0003C082E001C082E0C757DF4F0FB6F894C9
S1133E10DEBF0FBECDBFDF91CF911F910895CF9329
S1133E2080911402813019F08230B1F07BC062E0DD
S1133E3070E08EE295E00E94F10880E090E00E943C
S1133E40D70960E070E088E395E00E94F10882E021
S1133E5080931402C2E069C085E495E00E94FC45A9
S1133E60813021F078F18230F9F05EC062E070E0D8
S1133E7088E495E00E94F10881E080931402809127
S1133E80130C91E0980F9093130C833038F082EC6C
S1133E9080934C0C1092130CC1E001C0C2E080E08E
S1133EA090E00E94D70941C062E070E08FE495E0A1
S1133EB00E94F1081092130C1092120C1092110C23
S1133EC0C2E033C062E070E086E595E00E94F1084C
S1133ED08091110C9091120C8A30910538F401965E
S1133EE09093120C8093110CC2E01FC01092120C1C
S1133EF01092110C81E0809314028091130C91E0D4
S1133F00980F9093130C833038F082EC80934C0C10
S1133F101092130CC1E001C0C2E080E090E00E9466
S1133F20D70903C0C2E001C0C2E08C2FCF9108952D
S1133F30CF9380911202803119F0813191F07EC0CB
S1133F4062E070E08DE595E00E94F10860E070E0C9
S1133F5088E695E00E94F10881E180931202C2E0B4
S1133F6070C085E495E00E94FC45813021F0B0F1F9
S1133F708230F9F065C062E070E085E795E00E9468
S1133F80F10880E18093120280910B0C91E0980F6C
S1133F9090930B0C833038F081ED80934C0C10928D
S1133FA00B0CC1E001C0C2E080E090E00E94D709A0
S1133FB048C062E070E08DE795E00E94F10880E17E
S1133FC08093120280E090E00E94D70910920B0CBB
S1133FD010920A0C1092090CC0E033C062E070E049
S1133FE085E895E00E94F1088091090C90910A0CF3
S1133FF08A30910538F4019690930A0C8093090C49
S1134000C2E01FC010920A0C1092090C80E1809348
S1134010120280910B0C91E0980F90930B0C83305B
S113402038F081ED80934C0C10920B0CC1E001C070
S1134030C2E080E090E00E94D70903C0C2E001C062
S1134040C2E08C2FCF9108950F931F93CF93DF93EA
S11340500097A9F0EC0108EC11E1F80140815181CD
S113406060E57CE00E94A647F80180819181C80F39
S1134070D91F1882808191811182108202C080E050
S113408090E0DF91CF911F910F9108958093F912E1
S113409008958091F81208958093F81208958093FA
S11340A0F7120895CF93DF93FC018FE0A4EEB2E101
S11340B0ED0119928A95E9F79FE001900D929A9586
S11340C0E1F7DF91CF9108950F931F93CF93DF937F
S11340D0CDB7DEB7C958D1090FB6F894DEBF0FBE0D
S11340E0CDBF1A8219828091160290E08E3291051A
S11340F008F029C7FC018827E653FF4F8F4F0C9423
S1134100FA4680911A0C90911B0C9C012F5F3F4F33
S113411030931B0C20931A0C8436910508F417C7AE
S113412082E08093160210921B0C10921A0C4AC75C
S113413060E070E08BE995E00E94F10862E070E0D5
S113414081EA95E00E94F10883E08093160282E000
S113415039C762E070E089EA95E00E94F10880E0E6
S113416090E00E94D70984E08093160282E02AC777
S113417080E090E00E94B30960E070E083EB95E09A
S11341800E94F10862E070E08CEB95E00E94F10877
S113419085E08093160282E015C7CD57DF4F198260
S11341A01882C358D040AE014D575F4FBE016D5FBA
S11341B07F4F8DE098E00E947545813029F008F426
S11341C087C08230E1F1B4C084E08093160280E0BD
S11341D090E00E94D7098091190C8F5F8093190C8D
S11341E0833008F4A7C082E0809316021092190C61
S11341F062E070E081EC95E00E94F1088091180C77
S11342008F5F833020F48093180C82E0DBC6109219
S1134210180C1092F41281E00E94B04662E070E043
S11342208BEC95E00E94F10881E0809316021092D5
S1134230190C80E090E00E94D70981E0C3C6CD57F5
S1134240DF4F88819981C358D0400F975CF1CE012C
S113425003960E9466148823A1F0CE01039622DF00
S113426062E070E08AED95E00E94F10862E070E09F
S113427084EE92E10E94F10886E28093160282E0C5
S1134280A1C682E08093160262E070E081EE95E0C0
S11342900E94F10862E070E0CE0103960E94F108EA
S11342A081E090C68091170C853028F48F5F80934D
S11342B0170C82E087C61092170C82E080931602D6
S11342C062E070E08AEE95E00E94F10881E07AC62F
S11342D080911A0C90911B0C8330910538F401964F
S11342E090931B0C80931A0C82E06CC610921B0CEA
S11342F010921A0C8091190C91E0980F9093190C5C
S11343008330D0F01092F41281E00E94B04662E053
S113431070E08BEC95E00E94F10881E08093160236
S11343201092190C80E090E00E94D70981E04AC6FF
S113433082E048C682E046C682E044C662E070E09D
S113434084EF95E00E94F10880E090E00E94B309B8
S113435060E070E08EEF95E00E94F10887E08093C2
S1134360160282E02FC688E096E00E94FC45813068
S113437021F0A8F1823011F1ECC562E070E081E136
S113438096E00E94F10886E0809316028091190C51
S1134390833028F48F5F8093190C82E013C6109247
S11343A0190CE4EEF2E1108A87EA868B1092160269
S11343B010921B0C10921A0C81E004C662E070E0AB
S11343C088E196E00E94F10888E08093160210923A
S11343D0190C10921B0C10921A0C82E0F3C562E0C7
S11343E070E08FE196E00E94F10880911A0C9091A0
S11343F01B0C8A30910538F4019690931B0C809322
S11344001A0C82E0DFC510921B0C10921A0C86E085
S1134410809316028091190C833028F48F5F809367
S1134420190C82E0CFC51092190CE4EEF2E1108A67
S113443087EA868B1092160281E0C4C562E070E0C0
S113444086E296E00E94F10880E090E00E94D7099D
S113445060E070E08EE296E00E94F10889E08093CB
S1134460160282E0AFC585E495E00E94FC458130E8
S113447021F088F18230F1F06EC562E070E089EBE2
S113448096E00E94F10888E0809316028091190C4E
S113449091E0980F9093190C833008F45EC5E4EE14
S11344A0F2E1108A89EA868B109216021092190C96
S11344B081E088C562E070E08FEB96E00E94F1082D
S11344C083E2809316021092190C10921B0C109226
S11344D01A0C82E077C562E070E085EC96E00E94F9
S11344E0F10880911A0C90911B0C8A30910538F4D4
S11344F0019690931B0C80931A0C82E063C5109272
S11345001B0C10921A0C88E0809316028091190CEF
S113451091E0980F9093190C833008F420C5E4EED1
S1134520F2E1108A89EA868B109216021092190C15
S113453081E048C562E070E084EB94E00E94F108F9
S11345401092931260E070E08EEB94E00E94F10808
S113455084E28093160282E035C5AE014F5F5F4F5F
S1134560BE016D5F7F4F88EC94E00E947545182F63
S113457062E070E081ED94E00E94F10862E070E096
S1134580CE0103960E94F108113029F008F46BC0A3
S11345901230D1F093C062E070E08BED94E00E94A1
S11345A0F10883E2809316028091190C8F5F809347
S11345B0190C833008F482C084EC8093FA121092B0
S11345C016021092190C7AC062E070E082EE94E058
S11345D00E94F108BE016D577F4FCE0103960E94E1
S11345E0E7138823D1F1CD57DF4F8881C358D040DA
S11345F085518F3490F5CC57DF4F8881C458D04013
S113460081508C3050F5CB57DF4F8881C558D0404E
S113461081508F3110F5CA57DF4F8881C658D0407A
S11346208831D8F4C957DF4F8881C758D0408C33BC
S1134630A0F4C857DF4F8881C858D0408C3368F441
S113464087E0FE01ED57FF4FADE8B2E101900D9216
S11346508A95E1F781E0809393128CE080931602AF
S11346601092190C2BC062E070E089EE94E00E9475
S1134670F10880911A0C90911B0C8630910530F44E
S1134680019690931B0C80931A0C18C010921B0C6B
S113469010921A0C83E2809316028091190C91E017
S11346A0980F9093190C833048F0E4EEF2E1108AED
S11346B084EC868B109216021092190C82E082C44C
S11346C080E090E00E94D70962E070E082E396E027
S11346D00E94F10860E070E08BE396E00E94F1082C
S11346E01092F6128DE08093160282E06BC4AE0144
S11346F04F5F5F4FBE016D5F7F4F83E496E00E9482
S11347007545813029F008F441C08230F9F06CC05D
S113471062E070E08AE496E00E94F1088CE0809305
S1134720160280E090E00E94D7098091190C8F5FF7
S11347308093190C833008F459C08DEA8093FA12DF
S1134740109216021092190C81E03CC462E070E0F1
S113475080E596E00E94F1088B81880F8056982F9F
S1134760990F990F980F8C81890F90ED980F909362
S1134770F5128A53853118F481E08093F6128FE0A4
S1134780809316021092190C82E01CC462E070E05F
S113479086E596E00E94F10880911A0C90911B0C1A
S11347A08A30910538F4019690931B0C80931A0C6F
S11347B082E008C410921B0C10921A0C8CE08093B7
S11347C016028091190C91E0980F9093190C833084
S11347D078F0E4EEF2E1108A8DEA868B10921602EC
S11347E01092190C81E0EEC382E0ECC382E0EAC3CC
S11347F082E0E8C380E090E00E94D70960E070E0C6
S11348008CE596E00E94F10880E18093160282E034
S1134810D9C362E070E087E696E00E94F10883E77E
S113482096E00E94FC45813021F078F18230E1F07D
S113483098C362E070E08DE796E00E94F1088FE093
S1134840809316028091190C91E0980F9093190CA3
S1134850833008F488C380EB8093FA121092160216
S11348601092190C81E0AEC362E070E082E896E039
S11348700E94F1088BE1809316021092190C109299
S11348801B0C10921A0C82E09DC362E070E087E872
S113489096E00E94F10880911A0C90911B0C8A30CA
S11348A0910538F4019690931B0C80931A0C82E0C6
S11348B089C310921B0C10921A0C8FE0809316027D
S11348C08091190C91E0980F9093190C833008F49F
S11348D04CC3E4EEF2E1108A80EB868B1092160250
S11348E01092190C81E06EC362E070E08CE896E0EF
S11348F00E94F10880E090E00E94D70960E070E037
S113490089E996E00E94F1088CE18093160282E026
S113491059C385E495E00E94FC45813021F078F18B
S11349208230E1F024C362E070E088EB96E00E94FC
S1134930F1088BE1809316028091190C91E0980F95
S11349409093190C833008F414C38CEB8093FA12FF
S1134950109216021092190C81E034C362E070E0E8
S11349608EEB96E00E94F1088DE18093160210927E
S1134970190C10921B0C10921A0C82E023C362E0F3
S113498070E084EC96E00E94F10880911A0C9091FA
S11349901B0C8A30910538F4019690931B0C80937C
S11349A01A0C82E00FC310921B0C10921A0C8BE1AC
S11349B0809316028091190C91E0980F9093190C32
S11349C0833008F4D8C2E4EEF2E1108A8CEB868BD3
S11349D0109216021092190C81E0F4C262E070E0A9
S11349E08AEC96E00E94F10880E090E00E94D709EA
S11349F084EB92E19F938F9383ED96E09F938F9343
S1134A008E010D5F1F4F1F930F930E94F44760E0C8
S1134A1070E0C8010E94F1088EE1809316020F90A5
S1134A200F900F900F900F900F9082E0CBC285E40F
S1134A3095E00E94FC45813021F078F18230E1F06C
S1134A409CC262E070E08CEE96E00E94F1088DE179
S1134A50809316028091190C91E0980F9093190C91
S1134A60833008F48CC28EEB8093FA1210921602F3
S1134A701092190C81E0A6C262E070E082EF96E029
S1134A800E94F1088FE1809316021092190C109283
S1134A901B0C10921A0C82E095C262E070E088EF61
S1134AA096E00E94F10880911A0C90911B0C883CAE
S1134AB0910538F4019690931B0C80931A0C82E0B4
S1134AC081C210921B0C10921A0C8DE18093160275
S1134AD08091190C91E0980F9093190C833008F48D
S1134AE050C2E4EEF2E1108A8EEB868B109216022D
S1134AF01092190C81E066C262E070E08EEF96E0DD
S1134B000E94F10880E090E00E94D70960E070E024
S1134B1086E097E00E94F10880E28093160282E02A
S1134B2051C285E495E00E94FC45813021F080F17A
S1134B308230E9F028C262E070E084E197E00E94EC
S1134B40F1088FE1809316028091190C91E0980F7F
S1134B509093190C833008F418C280EC8093FA12F5
S1134B608CE2809316021092190C82E02BC262E050
S1134B7070E089E197E00E94F10882E080931602D8
S1134B801092190C10921B0C10921A0C80E01AC28D
S1134B9062E070E08EE197E00E94F10880911A0CC7
S1134BA090911B0C883C910538F4019690931B0C52
S1134BB080931A0C82E006C210921B0C10921A0CFD
S1134BC08FE1809316028091190C91E0980F9093D5
S1134BD0190C833008F4DBC1E4EEF2E1108A80ECB6
S1134BE0868B109216021092190C81E0EBC162E0E0
S1134BF070E083E297E00E94F10880E090E00E9478
S1134C00D70960E070E08FE297E00E94F1088DE23E
S1134C108093160282E0D6C185E495E00E94FC45AB
S1134C20813021F070F18230E1F0B3C162E070E0D4
S1134C308DE397E00E94F1088CE280931602809144
S1134C40190C91E0980F9093190C833008F4A3C1C8
S1134C508DEC8093FA12109216021092190C81E0D6
S1134C60B1C162E070E086E497E00E94F10882E05E
S1134C70809316021092190C10921B0C10921A0CAD
S1134C80A1C162E070E08FE497E00E94F108809196
S1134C901A0C90911B0C8E31910538F40196909367
S1134CA01B0C80931A0C82E08DC110921B0C109285
S1134CB01A0C8CE2809316028091190C91E0980FE3
S1134CC09093190C833008F468C1E4EEF2E1108A81
S1134CD08DEC868B109216021092190C81E072C131
S1134CE062E070E088E597E00E94F10880E090E0DF
S1134CF00E94D70960E070E082E697E00E94F10824
S1134D0087E28093160282E05DC185E495E00E940B
S1134D10FC45813021F078F18230E1F040C162E05D
S1134D2070E080E797E00E94F10886E28093160223
S1134D308091190C91E0980F9093190C833008F42A
S1134D4030C187EC8093FA12109216021092190C5B
S1134D5081E038C162E070E087E797E00E94F108E3
S1134D6086E0809316021092190C10921B0C10927C
S1134D701A0C82E027C162E070E08EE797E00E949F
S1134D80F10880911A0C90911B0C8A30910538F42B
S1134D90019690931B0C80931A0C82E013C110921D
S1134DA01B0C10921A0C86E2809316028091190C47
S1134DB091E0980F9093190C833008F4F4C0E4EE5A
S1134DC0F2E1108A87EC868B109216021092190C6D
S1134DD081E0F8C010921B0C10921A0C1092190C5E
S1134DE088E28093160282E0EDC062E070E085E81C
S1134DF097E00E94F10880E090E00E94D70960E00B
S1134E0070E08FE897E00E94F1088AE2809316022E
S1134E1062E070E08CE997E00E94F1086091FB1277
S1134E207091FC12CB0101969093FC128093FB12BB
S1134E3080E090E042E00E943E0982E0C3C085E445
S1134E4095E00E94FC45813021F0A0F1823009F107
S1134E505FC062E070E085EA97E00E94F10888E2B2
S1134E60809316028091190C91E0980F9093190C7D
S1134E70833008F44DC08AEC8093FA128BE280935D
S1134E8016021092190C10921B0C10921A0C81E04D
S1134E908FC062E070E08CEA97E00E94F1088BE238
S1134EA0809316021092190C10921B0C10921A0C7B
S1134EB082E07EC062E070E083EB97E00E94F1083C
S1134EC080911A0C90911B0C8E31910530F401964F
S1134ED090931B0C80931A0C1BC010921B0C109205
S1134EE01A0C88E2809316028091190C91E0980FB5
S1134EF09093190C833008F45AC0E4EEF2E1108A5E
S1134F008AEC868B81E0809316021092190C50C0B3
S1134F1080911A0C90911B0C9C012F5F3F4F309392
S1134F201B0C20931A0CC29708F43FC080E090E059
S1134F300E94D70981E08093160210921B0C1092F4
S1134F401A0C82E03FC01092160282E03BC082E05D
S1134F5039C082E037C082E035C082E033C082E0ED
S1134F6031C082E02FC082E02DC082E02BC082E0FD
S1134F7029C082E027C082E025C082E023C082E00D
S1134F8021C082E01FC082E01DC082E01BC082E01D
S1134F9019C082E017C082E015C082E013C082E02D
S1134FA011C082E00FC082E00DC082E00BC082E03D
S1134FB020911A0C30911B0C2F5F3F4F30931B0C28
S1134FC020931A0CC757DF4F0FB6F894DEBF0FBEFD
S1134FD0CDBFDF91CF911F910F91089584EE92E19F
S1134FE008950F931F93CF93DF93CDB7DEB7C85CBB
S1134FF0D1090FB6F894DEBF0FBECDBF8C0184E695
S1135000FE013196DF01282F1D922A95E9F7EC590C
S1135010FF4FDF011D928A95E9F780911C0C8823CC
S113502021F0813009F4CEC033C162E070E08AEB34
S113503097E00E94F108F8018081823269F031968C
S113504080E090E004C08038910509F42EC10196F7
S113505021912232C1F720C180E090E0AC014F5F82
S11350605F4FF801E40FF51F2081213309F094C04C
S113507002968132F6E09F0720F401C0AC01CA0118
S11350800296FE01319624E6DF011D922A95E9F786
S1135090B801680F791FFB012081223261F001966B
S11350A0D801A80FB91F40E050E04F5F5F4F8D91CA
S11350B08232D9F702C040E050E0CE0101960E944E
S11350C0A647CE0101960E947C4780931E0C815016
S11350D0833608F057C062E070E082EC97E00E94EB
S11350E0F10862E070E0C8010E94F10862E070E03B
S11350F08CEC97E00E94F10862E070E0CE0101962A
S11351000E94F10862E070E089ED97E00E94F108E6
S11351100CE11CE0D80112966C9170E080E090E004
S113512042E00E943E0962E070E08EEE97E00E9449
S1135130F108D8D7682F70E080E090E042E00E9448
S11351403E09F8011281CED718130AC010921D0C23
S113515062E070E08EEF97E00E94F10881E0B4C055
S11351600CE11CE0D80112968C91BFD781E0F801C4
S11351708183808362E070E080E198E00E94F1081E
S113518081E0A2C062E070E08EE198E00E94F10844
S113519010921D0C80E098C0203361F462E070E04E
S11351A08DE298E00E94F108ECE1FCE011821082AB
S11351B080E08AC062E070E08CE398E00E94F1082D
S11351C080E082C0FE01319684E6DF011D928A955B
S11351D0E9F762E070E084EC97E00E94F10862E095
S11351E070E0C8010E94F108F8018081823271F0F8
S11351F0D8011196E0E0F0E004C0E038F10509F4CC
S11352005CC031968D918232C1F74BC0E0E0F0E092
S11352109F012F5F3F4FD801A20FB31F8C918133A1
S1135220E9F43296E13286E0F80720F401C09F01E8
S1135230F9013296E00FF11F89E4DE011196019025
S11352400D928A95E1F7CE01019656D4882311F187
S1135250ECE1FCE01182108281E036C0803361F41D
S113526062E070E089E498E00E94F108ECE1FCE07F
S11352701182108280E028C062E070E08BE598E043
S11352800E94F108ECE1FCE01182108280E01CC075
S113529080E01AC080E018C08F37910508F08ACFEB
S11352A0DDCEEF37F10540F7B3CFF801E058FF4FFB
S11352B02081213309F070CFE1CED801A058BF4F2F
S11352C08C91813359F6B3CFC853DF4F0FB6F8949E
S11352D0DEBF0FBECDBFDF91CF911F910F91089517
S11352E00F931F93CF93DF93CDB7DEB7CA57D54043
S11352F00FB6F894DEBF0FBECDBF1A821982E091BB
S113530013024E2F50E0FA013597EB30F10508F007
S113531081C28C018827E850FF4F8F4F0C94FA46C6
S113532062E070E0C8010E94F10880E090E00E9411
S1135330D70960E070E0C8010E94F10886E080931C
S1135340130212E06EC285E495E00E94FC458130B0
S113535021F088F18230D1F05FC262E070E08AE629
S113536098E00E94F10885E0809313028091100C6C
S113537091E0980F9093100C833008F44FC286ECA0
S113538080934C0C1092100C11E04BC262E070E060
S113539080E798E00E94F1088BE08093130280E09C
S11353A090E00E94D7091092100C10920F0C1092EA
S11353B00E0C12E036C262E070E086E798E00E94CC
S11353C0F10880910E0C90910F0C8E31910538F4F8
S11353D0019690930F0C80930E0C12E022C210924F
S11353E00F0C10920E0C85E0809313028091100C28
S11353F091E0980F9093100C833038F086EC8093F2
S11354004C0C1092100C11E001C012E080E090E00E
S11354100E94D70906C262E070E08CE798E00E941F
S1135420F10880E090E00E94D70960E070E086E82F
S113543098E00E94F1088CE08093130212E0F1C11D
S113544085E495E00E94FC45813021F0C8F182306A
S113545011F1E6C162E070E087E998E00E94F1088A
S11354608BE0809313028091100C91E0980F90933D
S1135470100C833050F08CEC80934C0C85E08093BE
S113548013021092100C11E001C012E080E090E0D1
S11354900E94D709C6C162E070E08EE998E00E94DC
S11354A0F1088DE08093130280E090E00E94D70918
S11354B01092100C10920F0C10920E0C12E0B1C14D
S11354C062E070E085EA98E00E94F10880910E0C99
S11354D090910F0C8E31910538F4019690930F0C36
S11354E080930E0C12E09DC110920F0C10920E0CC2
S11354F08BE0809313028091100C91E0980F9093AD
S1135500100C833050F08CEC80934C0C85E080932D
S113551013021092100C11E001C012E080E090E040
S11355200E94D7097EC1AE014F5F5F4FBE016D5F20
S11355307F4F8CEA98E00E947545813029F008F489
S113554072C0823061F190C062E070E08CEB98E050
S11355500E94F1088BE0809313028091100C8F5FFE
S11355608093100C90911D0C992329F0833078F0CE
S113557010921D0C02C0833060F08DEC80934C0CB3
S113558085E0809313021092100C11E003C012E026
S113559001C012E080E090E00E94D70942C162E0BD
S11355A070E082EC98E00E94F10862E070E0CE01C5
S11355B003960E94F1080E94983A833021F00E94D9
S11355C0AC3D823059F480910D0C823020F48F5F11
S11355D080930D0C03C010920D0C10C080911D0C13
S11355E0882361F080910C0C91E0980F90930C0C3F
S11355F0833020F010921D0C10920C0C62E070E0CD
S113560088EC98E00E94F10885E08093130280E022
S113561090E00E94D7091092100C10920F0C109277
S11356200E0C11E0FEC080910E0C90910F0C8E3E7A
S113563022E0920738F4019690930F0C80930E0C9D
S113564012E0EFC010920F0C10920E0C8DEC8093B0
S11356504C0C85E0809313021092100C80E090E0D3
S11356600E94D70911E0DDC012E0DBC062E070E007
S11356708EEC98E00E94F10860E070E088ED98E01C
S11356800E94F1088FE08093130212E0CAC0AE01B9
S11356904F5F5F4FBE016D5F7F4F85EE98E00E94C4
S11356A07545813029F008F479C0823019F1B0C011
S11356B08091100C8F5F8093100C90911D0C992396
S11356C029F0833078F010921D0C02C0833060F012
S11356D08FEC80934C0C85E0809313021092100C95
S11356E011E003C012E001C012E080E090E00E94EB
S11356F0D70997C062E070E081EF98E00E94F1085A
S11357000E94983A833081F4B6D280E090E00E94FF
S1135710D70985E0809313021092100C10920F0C9D
S113572010920E0C10E07DC00E94AC3D823001F559
S1135730CE01039616D3813031F480E090E00E94CC
S1135740D70910E00BC080E090E00E94D70962E026
S113575070E088EF98E00E94F10811E085E0809302
S113576013021092100C10920F0C10920E0C59C0D0
S1135770CE01039636DC15E0109313021092100C40
S113578080E090E00E94D709109313021092100C4D
S113579010920F0C10920E0C10E043C062E070E007
S11357A08FEF98E00E94F10880910E0C90910F0CFD
S11357B08A30910538F4019690930F0C80930E0C67
S11357C012E02FC010920F0C10920E0C8091100C4E
S11357D08F5F8093100C90911D0C992329F08330D6
S11357E078F010921D0C02C0833060F08FEC80932F
S11357F04C0C85E0809313021092100C11E003C04E
S113580012E001C012E080E090E00E94D70909C0D4
S113581012E007C012E005C012E003C012E001C0AC
S113582012E0812FC658DA4F0FB6F894DEBF0FBED0
S1135830CDBFDF91CF911F910F910895CF93DF9347
S11358401F921F92CDB7DEB7E091F3128E2F90E036
S1135850FC013197EA30F10508F046C18827ED5F75
S1135860FE4F8F4F0C94FA468091F912882321F051
S113587082E08093F3123BC162E070E086E099E03D
S11358800E94F10834C10E946420811104C083E0A5
S11358908093F3122CC1813009F029C1E4EEF2E1C6
S11358A08787148A24C10E949D1D811116C081E03E
S11358B08093F812A1D6811108C00E94983A8330CF
S11358C021F00E94AC3D823021F484E08093F312F5
S11358D00EC189E08093F3120AC1813009F007C137
S11358E0E4EEF2E1148A878702C10E940F1F81113E
S11358F009C081E08093080CE4EEF2E1838B86E03A
S11359008787F5C0813009F0F2C085E08093F312F7
S1135910EEC08091070C882341F00E94983A8330AE
S113592021F00E94AC3D8230D9F47BD68093070CE1
S113593090ECE7E4FBE0DF011D929A95E9F7682F0C
S1135940CF0184D762E070E08CE099E00E94F10816
S11359506091070C70E080E090E042E00E943E0914
S11359608091070C882321F088E08093F312BFC054
S113597089E08093F312BBC08091070C882309F45B
S113598065C0BE016F5F7F4F87E49BE0A9DC811196
S113599039C08091070C813A09F41ED61092460B47
S11359A087E08093F3128091070C90E6980F923071
S11359B018F520911A0230911B02232B79F01092D2
S11359C01B0210921A022091AD133091AE1324FFE2
S11359D005C02F7E3093AE132093AD13813A61F44A
S11359E08091341390913513892B31F081E090E04C
S11359F090931B0280931A021092070C80E00E947D
S1135A00B34675C0813009F072C087E08093F31209
S1135A101092070C8091460B8F5F833018F48093AB
S1135A20460B65C01092460BE4EEF2E1138A85E062
S1135A30878780E00E94B3460E94AC3D823009F023
S1135A4056C086E0D9D280E047D351C01092460BAD
S1135A5089E08093F3124BC00E94981F81110CC0FF
S1135A601092080C82E08093F31262E070E088E107
S1135A7099E00E94F1083BC08130C9F51092080CEE
S1135A8082E08093F31233C08091450B853620F475
S1135A908F5F8093450B05C01092450B83E0809384
S1135AA0F312AAD5811108C00E94983A833021F0DC
S1135AB00E94AC3D8230D9F48091F812813071F4A7
S1135AC08091080C813021F487E08093F3120FC099
S1135AD0E4EEF2E1138A83E0878709C0E4EEF2E1A1
S1135AE082E08787138A03C081E08093F3120F90CA
S1135AF00F90DF91CF910895CF92DF92EF92FF92B2
S1135B000F931F93CF93DF93CDB7DEB7C954D10959
S1135B100FB6F894DEBF0FBECDBF8C01CE01019647
S1135B207C0189E1D7011D928A95E9F762E070E072
S1135B3083ED97E00E94F10862E070E0C8010E94E2
S1135B40F108FE017A9680E3DF011D928A95E9F758
S1135B50F70101900020E9F73197AF014E195F0971
S1135B6060E070E0C7010E94AF47F80140814E3207
S1135B7009F44DC0423209F443C0319680E090E00C
S1135B80DC0120E030E002C0423219F1880F991F95
S1135B90AA1FBB1F6C017D01CC0CDD1CEE1CFF1C7D
S1135BA0CC0CDD1CEE1CFF1C8C0D9D1DAE1DBF1D01
S1135BB050E040535109052E000C660B770B840FFF
S1135BC0951FA61FB71F2F5F3F4F41914E32E1F63D
S1135BD023C0F801E20FF31F50815232B1F02F5F5E
S1135BE03F4FF801E20FF31F30E0330F432F440F10
S1135BF0440F340F3053350F51915232B1F70FC067
S1135C0080E090E0DC0130E00AC030E008C080E0D1
S1135C1090E0DC0120E030E02F5F3F4FDACF9CAB17
S1135C208BAB3DAB62E070E082E299E00E94F10848
S1135C3060910C0B70910D0B80E090E042E00E94AB
S1135C403E0960911E0CCE014A960E9461048ED4D6
S1135C500E94533781E0C75BDF4F0FB6F894DEBF75
S1135C600FBECDBFDF91CF911F910F91FF90EF90A9
S1135C70DF90CF90089580E00C949B3A0895CF93E1
S1135C80DF93CEEFD2E189E0FE0111928A95E9F724
S1135C9080E090E0A0E6B0E088839983AA83BB8388
S1135CA08FEF0E94B23D81E08887DF91CF91089504
S1135CB0CF92DF92EF92FF920F931F93CF93DF93D4
S1135CC0EC018A01D880141615060CF040C0E62FAA
S1135CD0F72F20E030E060E080E041E0780191E0DF
S1135CE0E91AF108CC24C394722FDF01908150ED9E
